:020000040800F2
:10000000800D0020A90500087D0300087F0300087B
:1000100083030008870300088B030008000000002A
:100020000000000000000000000000008F03000836
:1000300091030008000000009303000895030008E6
:10004000C3050008C3050008C3050008C305000870
:10005000C3050008C3050008C3050008C305000860
:10006000C3050008C3050008C3050008C305000850
:10007000C3050008C3050008C3050008C305000840
:10008000C3050008C3050008C3050008C305000830
:100090003F510008C3050008C3050008C305000858
:1000A000C3050008C3050008C3050008C305000810
:1000B000CD3D0008B53D00089D3D0008C305000882
:1000C000C3050008C3050008C3050008C3050008F0
:1000D000C3050008133400085D350008D74B00083D
:1000E000CB6B0008C3050008C3050008C305000862
:1000F000C3050008C3050008C3050008C3050008C0
:10010000C3050008C3050008C3050008C3050008AF
:10011000C3050008C3050008C3050008C30500089F
:10012000C3050008C3050008C3050008C30500088F
:10013000C3050008C3050008C3050008C30500087F
:10014000C3050008C3050008C3050008C30500086F
:10015000C3050008C3050008C3050008C30500085F
:10016000C3050008C3050008C3050008C30500084F
:10017000C3050008C3050008C3050008C30500083F
:10018000C3050008C305000800F002F800F061F89C
:100190000AA090E8000C82448344AAF10107DA45E2
:1001A00001D100F056F8AFF2090EBAE80F0013F0D3
:1001B000010F18BFFB1A43F00103184744ED00007C
:1001C00064ED00000A444FF0000C10F8013B13F0FE
:1001D000070408BF10F8014B1D1108BF10F8015BA0
:1001E000641E05D010F8016B641E01F8016BF9D193
:1001F00013F0080F1EBF10F8014BAD1C0C1B09D1EA
:100200006D1E58BF01F801CBFAD505E014F8016B5B
:1002100001F8016B6D1EF9D59142D6D370470000ED
:100220000023002400250026103A28BF78C1FBD8FF
:10023000520728BF30C148BF0B60704764290AF0DD
:100240006F85002070471FB50DF09DF91FBD10B5DB
:1002500010BD0AF035FF1146FFF7F5FF00F008F872
:100260000AF053FF03B4FFF7F2FF03BC03F054F8A6
:1002700008B5A82002F0CEFF4FF4A06000F0B4F95A
:1002800003F0B4FE03F0F4FD3448006818B901200F
:100290003349087002E000203149087004F0F9F891
:1002A0004FF4E13003F063F84FF4165003F005F912
:1002B0004FF4E13004F03AFC03F032FC03F09BFC15
:1002C00003F0EFFC03F092FB4FF4FA7003F004F834
:1002D00004F08AF907F002FC07F014FC05F0B8F806
:1002E00005F0D2FA03F086FD002003230622072141
:1002F0000090012004F0CEFC012142F2D00003F076
:10030000E2FE4FF4FA7002F0E7FF25E015480078AE
:1003100018B907F028F906F029FE03F010FB12487F
:10032000007870B1114801780078401C0F4A1070B5
:10033000042906DD0E4800210160416000200A49C1
:10034000087001200B49087000200B49087000BF9D
:10035000084800780028FBD1D8E7000030824042EE
:100360004E000020040000206100002065000020F5
:10037000570000204D0000204C000020704700BFB7
:10038000FEE700BFFEE700BFFEE700BFFEE77047E5
:1003900070477047704700000CB500200190009036
:1003A0007648006840F480307449086000BF7348A4
:1003B000006800F4003000900198401C0190009803
:1003C00018B90198B0F5A04FF1D16C48006800F45D
:1003D000003010B10120009001E000200090009852
:1003E000012846D165484030006840F0805063499C
:1003F000403108606248006840F44040604908604D
:100400005E48083000685D490831086008460068A9
:1004100040F4004008600846006840F4A0500860BE
:100420005848091F0860081F006840F08070091FC5
:10043000086000BF5148006800F000700028F9D043
:1004400040F20570504908604C480830006820F0C0
:1004500003004A49083108600846006840F002007D
:10046000086000BF45480830006800F00C0008280C
:10047000F8D10CBD10B54548006840F47000434900
:1004800008603E48006840F001003C4908600020D8
:100490003A4908310860394800683D490840374901
:1004A00008603C48091D0860081F006820F480208F
:1004B000091F0860002031490C310860FFF76CFF0C
:1004C0004FF0006031498039086010BD70B50020E0
:1004D0000022022300240221284D08352D6805F052
:1004E0000C0020B1042806D0082834D107E02A4D9A
:1004F0002A4E356033E02A4D284E35602FE01F4DDF
:100500002D1D2D68C5F380541C4D2D1D2D6805F043
:100510003F0154B1224DB5FBF1F5184E361D36683A
:10052000C6F3881605FB06F209E01B4DB5FBF1F595
:10053000124E361D3668C6F3881605FB06F20F4DBF
:100540002D1D2D68C5F301456D1C6B00B2FBF3F545
:10055000124E356003E0104D104E356000BF00BFF5
:10056000064D08352D68C5F303150E4E705D0B4D15
:100570002D68C540094E356070BD0000003802404E
:100580000070004008544007003C024088ED00E045
:10059000FFFFF6FE103000240024F400C400002009
:1005A00000127A00C8000020094880470948004727
:1005B000FEE7FEE7FEE7FEE7FEE7FEE7FEE7FEE713
:1005C000FEE7FEE704480549054A064B7047000070
:1005D000750400088901000880070020800D0020B4
:1005E000800900208009002032490143324A11600D
:1005F000704770B5002100230F22C4781CB32E4C25
:10060000246804F4E064C4F5E064C4F30721C1F194
:100610000404E3B20A4144789C40E1B28478144077
:1006200021430C07210E254C05786155047804F010
:100630001F050124AC4005786D11AD0005F1E025E2
:10064000C5F8004109E0047804F01F050124AC401E
:100650001B4D0678761145F8264070BD194A0A40B0
:100660000243154B1B1F1A60704739B1124A121D05
:1006700012680243104B1B1D1A6006E00E4A121D41
:10068000126882430C4B1B1D1A607047042808D166
:100690004FF0E021096941F004014FF0E0221161BF
:1006A00007E04FF0E021096921F004014FF0E0225A
:1006B000116170470000FA050CED00E000E400E075
:1006C00080E100E080FFFF1F10B50121080201F06A
:1006D00036FC00214FF4807001F031FC10BD30B5C4
:1006E0000246002000235068F84C20400D790C6829
:1006F00044EA0524204350609068F54C2040D1E93D
:1007000003542C438D682C434D7944EA450420431F
:100710009060D06A20F470000C7D641EE4B2234324
:1007200040EA0350D06230BD002101600171417187
:100730008160C16001610121017570470021E54AB6
:100740001168E54A1140D0E900231A4383681A432F
:10075000C3681A431143E14AC2F8041370470021E9
:10076000016041608160C160704721B1826842F0E0
:100770000102826003E0826822F001028260704719
:100780000A4600214168D64B194011434160704729
:100790004162826270470A460021416821F01F01D0
:1007A00011434160704738B1CA49096841F40001FA
:1007B000CA4AC2F8041306E0C649096821F40001D8
:1007C000C64AC2F80413704738B1C249096841F4F7
:1007D0008001C24AC2F8041306E0BE49096821F448
:1007E0008001BE4AC2F804137047F0B504460D46B6
:1007F00000200021092D11DDE068A5F10A0606EBB5
:100800004607072606FA07F18843A5F10A0606EB14
:10081000460603FA06F10843E0600CE0206905EBA8
:100820004507072606FA07F1884305EB450603FA54
:1008300006F108432061072A0FDA606B561E06EBAB
:1008400086071F2606FA07F18843561E06EB860622
:1008500005FA06F10843606322E00D2A0FDA206BE7
:10086000D61F06EB86071F2606FA07F18843D61F18
:1008700006EB860605FA06F10843206310E0E06AFD
:10088000A2F10D0606EB86071F2606FA07F188433C
:10089000A2F10D0606EB860605FA06F10843E062B2
:1008A000F0BD816841F080418160704701460020C1
:1008B0008A6802F080420AB1012000E000207047FF
:1008C00021B1826842F48062826003E0826822F48F
:1008D00080628260704721B1826842F002028260C9
:1008E00003E0826822F002028260704710B50A4677
:1008F00000210023416821F46041531E41EA433145
:10090000416010BD21B1426842F40062426003E0E0
:10091000426822F40062426070470146C86C80B2AF
:1009200070476C48001D0068704721B1826842F42E
:100930008072826003E0826822F480728260704775
:1009400021B1826842F40072826003E0826822F47E
:1009500000728260704738B15E49096841F4005105
:100960005E4AC2F8041306E05A49096821F40051AE
:100970005A4AC2F804137047F0B5044615460020E1
:1009800000220026092911DDE068A1F10A0707EB22
:10099000470C072707FA0CF29043A1F10A0707EB6F
:1009A000470703FA07F21043E0600CE0206901EB0F
:1009B000410C072707FA0CF2904301EB410703FAB9
:1009C00007F210432061A06BC0F30156EF1C06F143
:1009D000010CA7EB0C0707EB870C1F2707FA0CF29B
:1009E0009043EF1C06F1010CA7EB0C0707EB870700
:1009F00001FA07F21043A063F0BD10B50A460021CA
:100A00000023816B21F44011531E41EA035181639D
:100A100010BD08B5002300930090009B0B44009389
:100A2000009B1A6008BD0A460021816821F47021EC
:100A30001143816070470A460021816821F440110A
:100A4000114381607047816841F480018160704783
:100A5000014600208A6802F480020AB1012000E009
:100A60000020704721B1426842F48062426003E096
:100A7000426822F480624260704721B1426842F4C9
:100A80008052426003E0426822F480524260704724
:100A900008B5024600200090009201F12800009B5A
:100AA000184400900098006880B208BD10B50B464D
:100AB0000021D9B2012404FA01F11AB144680C43AF
:100AC000446002E044688C43446010BDFFFEFFFCBC
:100AD000FDF7FFC004230140E030FCFF002001408F
:100AE000FFFD3FFF0246002013680B400BB10120C1
:100AF00000E000207047CA430260704770B50246AC
:100B00000020002300240B12556801268E4005EAC0
:100B1000060415681D4015B10CB1012000E000204D
:100B200070BD00220A12D3430360704710B504461B
:100B3000FE48844209D10121480601F0EFF9002165
:100B40004FF0007001F0EAF908E00121880601F099
:100B5000E5F900214FF0806001F0E0F910BD30B5FB
:100B6000024600200023146824F002041460146874
:100B700044F00104146000E05B1C546804F00104BC
:100B80001CB94FF6FF74A342F6D1546804F0010477
:100B90000CB900206CE08C79012C04D1146844F06D
:100BA0008004146003E0146824F080041460CC799D
:100BB000012C04D1146844F04004146003E014686C
:100BC00024F0400414600C7A012C04D1146844F021
:100BD0002004146003E0146824F0200414604C7AAC
:100BE000012C04D1146844F01004146003E014686C
:100BF00024F0100414608C7A012C04D1146844F0A1
:100C00000804146003E0146824F008041460CC7A2B
:100C1000012C04D1146844F00404146003E0146847
:100C200024F0040414608C78A407CD7844EA0564A9
:100C30000D7944EA05444D7944EA05540D886D1E4A
:100C40002C43D461146824F001041460002300E0F4
:100C50005B1C546804F001041CB14FF6FF74A342FE
:100C6000F6D1546804F001040CB1002000E001202A
:100C700030BD10B50021837A012202FA03F1AC4A9B
:100C8000126842F00102AA4B1A60A94A1C3212688B
:100C90008A43A74B1C331A60027BCAB9A44A0C32A0
:100CA00012688A43A24B0C331A604288C38842EA16
:100CB00003439F4A4032847A42F834300288838862
:100CC00042EA03439A4A4032847A02EBC4025360F8
:100CD000027B012A19D1964A0C3212680A43944BBE
:100CE0000C331A604288038842EA0343904A403238
:100CF000847A42F83430C288838842EA03438C4ABB
:100D00004032847A02EBC4025360C27A3AB9884A0C
:100D1000121D12688A43864B1B1D1A6006E0844A26
:100D2000121D12680A43824B1B1D1A60028932B9D8
:100D30007F4A143212688A437D4B14331A60028949
:100D4000012A06D17A4A143212680A43784B1433C6
:100D50001A60427B012A06D1754A1C3212680A4386
:100D6000734B1C331A60724A126822F00102704BF6
:100D70001A6010BD00218171C171017241728172CE
:100D8000C1728170C1700321017102214171012181
:100D9000018070476649096841F00101644A1160A9
:100DA0001146096843F60E729143614A116011467B
:100DB000096841EA002111601146096821F001012A
:100DC0001160704721B1026842F48032026003E092
:100DD000026822F4803202607047E1B1026842F09A
:100DE000800202604FF4C272125842F480734FF4D2
:100DF000C27213504FF4CA72125842F480734FF407
:100E0000CA7213504FF4D272125842F480734FF4E6
:100E1000D27213501BE0026822F0800202604FF48D
:100E2000C272125822F480734FF4C27213504FF4FE
:100E3000CA72125822F480734FF4CA7213504FF4DE
:100E4000D272125822F480734FF4D272135070474A
:100E500010B502460020936803F08063B3F1806F01
:100E600000D110E0936803F00063B3F1006F01D18B
:100E7000012008E0936803F08053B3F1805F01D153
:100E8000022000E00420042879D002F5C07303EBAF
:100E900000131B6803F0010402F5C07303EB001399
:100EA0001C600B7A7BB94B7A0C8843EA445302F5F9
:100EB000C07404EB00142468234302F5C07404EBEF
:100EC0000014236010E00B7A4C6843EAC4034C7AA8
:100ED000234302F5C07404EB00142468234302F595
:100EE000C07404EB001423608B7A03F00F038B7241
:100EF00002F5C07303EB00135B6823F00F0402F5E7
:100F0000C07303EB00135C6002F5C07303EB0013C6
:100F10005B688C7A234302F5C07404EB00146360B1
:100F20008B7B1C064B7B44EA034403E000640040D7
:100F3000006600400B7B44EA0323CC7A234302F58E
:100F4000C07404EB0014A3608B7C1C064B7C44EA49
:100F500003440B7C44EA0323CC7B234302F5C07497
:100F600004EB0014E36002F5C07303EB00131B688D
:100F700043F0010402F5C07303EB00131C6010BDC5
:100F800010B50246002321B1012907D002290FD153
:100F900009E09068F94C00EA04030BE09068F84C13
:100FA00000EA040306E09068F64C00EA040301E05E
:100FB000002300BF00BFF44C181BA34216D007DC6F
:100FC00083B16FF08060184470B1022818D111E02D
:100FD000B0F5007F10D0ED4C204448B1B0F5003F93
:100FE0000ED10BE002230DE000230BE0002309E00B
:100FF000002307E0012305E0012303E0012301E0D2
:10100000002300BF00BFD8B210BD21B1012907D015
:1010100002290FD109E0826842F0800282600AE072
:10102000826842F40042826005E0826842F4000275
:10103000826000E000BF00BF704710B500F5D873B4
:1010400003EB01131B6803F004031372137A53B903
:1010500000F5D87303EB01131B6840F2FF7404EA38
:101060005353136009E000F5D87303EB01131B68B9
:101070006FF0604404EAD303536000F5D87303EBC8
:1010800001131B6803F00203537200F5D87303EBDE
:1010900001135B6803F00F03937200F5D87303EB41
:1010A00001135B681B0AD37400F5D87303EB0113BB
:1010B0009B68D37200F5D87303EB01139B681C0A7D
:1010C000147300F5D87303EB01139B681C0C547365
:1010D00000F5D87303EB01139B681B0E937300F5A7
:1010E000D87303EB0113DB68D37300F5D87303EBFC
:1010F0000113DB681C0A147400F5D87303EB0113A9
:10110000DB681C0C547400F5D87303EB0113DB6827
:101110001B0E937421B9C36843F02003C36003E03E
:10112000036943F02003036110BD21B9C26842F096
:101130002002C26003E0026942F0200202617047AF
:101140000246002019B9D36803F0030006E0012924
:1011500003D1136903F0030000E00020704710B5CD
:1011600002460B4600204FF6FF71BBB9146824F00D
:10117000020444F00104146000E0491E546804F0C5
:101180000304012C01D00029F7D1546804F00304B2
:10119000012C01D0002032E0012030E0012B13D1DE
:1011A000146824F00304146000E0491E546804F03D
:1011B00003040CB10029F8D1546804F003040CB105
:1011C00000201CE001201AE0022B17D1146824F043
:1011D000010444F00204146000E0491E546804F065
:1011E0000304022C01D00029F7D1546804F0030451
:1011F000022C01D0002002E0012000E0002010BD00
:10120000014600200A6822F0010242F002020A6050
:101210004A6802F00302022A00D101207047014609
:101220004FF6FF7200200B6823F002030B6000E012
:10123000521E4B6803F00203022B01D1002AF7D1A2
:101240004B6803F00203022B00D0012070470146D7
:1012500000208A6902F070007047014600208A6908
:10126000100E7047014600208A69C2F3074070479C
:101270001AB143690B43436102E043698B43436105
:10128000704710B50246002001F4700343B1936922
:10129000C1F3130423400BB101202DE000202BE00B
:1012A00001F0807343B15368C1F3130423400BB1C1
:1012B000012021E000201FE001F0006343B19368AA
:1012C000C1F3130423400BB1012015E0002013E00B
:1012D00001F0007343B1D368C1F3130423400BB191
:1012E000012009E0002007E01369C1F31304234043
:1012F0000BB1012000E0002010BD0022244B9942D8
:1013000002D10023836111E0C1F3130201F00073E5
:101310000BB1C2600AE001F080630BB1026105E02D
:1013200001F000630BB1826000E04260704702464A
:10133000002002EA01030BB1012000E00020704709
:1013400070B504460D46002660692840002872D01A
:10135000B5F5807F69D01DDC082D42D006DC012D5B
:101360002DD0022D31D0042D7FD134E0102D3ED070
:10137000202D42D0402D78D145E00000030000042C
:101380000003000800000310000100080001FFF73F
:101390007000F030B5F5004F61D009DCB5F5007F85
:1013A0004AD0B5F5806F4DD0B5F5006F5DD150E0F6
:1013B000B5F5803F2DD0B5F5003F56D12FE0A068A0
:1013C0005549FFF7B4FF064651E0E0680321FFF7F7
:1013D000AEFF06464BE0E0680821FFF7A8FF06468F
:1013E00045E0E0681021FFF7A2FF06463FE02069D4
:1013F0000321FFF79CFF064639E020690821FFF72B
:1014000096FF064633E020691021FFF790FF06465D
:101410002DE060680821FFF78AFF064627E0606834
:101420001021FFF784FF064621E0A0690121FFF7A4
:101430007EFF06461BE01BE0A0690221FFF777FF55
:10144000064614E0A0690421FFF771FF06460EE08E
:101450000BE0A0697021FFF76AFF064607E06068AD
:101460000421FFF764FF064601E0002600BF00E00C
:101470000026304670BDB1F5007F3AD00FDC202940
:1014800028D006DC01291CD004291DD0082940D110
:101490001DE0402921D0B1F5807F3AD126E0B1F599
:1014A000004F31D006DCB1F5806F25D0B1F5006F6B
:1014B0002FD124E0B1F5803F12D0B1F5003F28D103
:1014C00011E0154A826025E00822C26022E0102265
:1014D000C2601FE0082202611CE01022026119E0D4
:1014E0000822426016E01022426013E004224260AB
:1014F00010E0042242600DE0042242600AE0002273
:1015000082610422426005E000228261042242607E
:1015100000E000BF00BF7047010101000020414909
:101520000860091D0860091D0860091D08603E4823
:101530003C4914310860704700213A498279002AF9
:101540003AD00A46126803689A430B461A600A1D8D
:10155000126803689A430B1D1A60027911440A68E5
:1015600003681A430A602F4A0832126803689A43D4
:101570002C4B08331A601A1D126803689A43294BD2
:101580000C331A604279102A0ED11A1F12680368B0
:101590001A43244B08331A601A1D126803681A4351
:1015A000204B0C331A600DE01E49427911440A6841
:1015B00003681A430A6005E0027911440A68036867
:1015C0009A430A6070470021016001710C2141714A
:1015D0000021817170471349103109680143114A94
:1015E000103211607047014600200E4A1432126812
:1015F0000A400AB1012000E0002070470949143177
:101600000860704701460020064A143212680A40FA
:101610000AB1012000E0002070470249143108603F
:1016200070470000003C0140FFFF7F0010B50446FA
:101630009848844208D10121084600F03CFC002172
:10164000012000F038FC76E09348844208D1012163
:10165000022000F030FC0021022000F02CFC6AE0A7
:101660008E48844208D10121042000F024FC00218E
:10167000042000F020FC5EE08948844208D101216A
:10168000082000F018FC0021082000F014FC52E0B3
:101690008448844208D10121102000F00CFC002174
:1016A000102000F008FC46E07F48844208D1012168
:1016B000202000F000FC0021202000F0FCFB3AE09C
:1016C0007A48844208D10121402000F0F4FB002137
:1016D000402000F0F0FB2EE07548844208D1012143
:1016E000802000F0E8FB0021802000F0E4FB22E0F5
:1016F0007048844208D10121801500F0DCFB0021F4
:10170000A01500F0D8FB16E06B48844208D10121F7
:10171000401500F0D0FB0021601500F0CCFB0AE082
:101720006648844207D10121001500F0C4FB002166
:10173000201500F0C0FB10BDF0B50A4600210023C3
:10174000002400BF3DE0012505FA01F3156805EA14
:1017500003049C4234D105684F000326BE40B543C4
:10176000056015794E00B54006683543056015796A
:10177000012D02D01579022D16D185684F00032660
:10178000BE40B543856055794E00B5408668354307
:101790008560456801268E40B54345604568967969
:1017A0008E40B6B235434560C5684F000326BE4043
:1017B000B543C560D5794E00B540C6683543C560B0
:1017C000491C1029BFD3F0BD4FF6FF710160002105
:1017D000017141718171C171704708B54FF4803258
:1017E0000092009A0A430092009AC261C161009A75
:1017F000C261C2690092C269009208BD024600201F
:1018000013690B400BB1012000E000207047014636
:10181000086980B270470246002053690B400BB143
:10182000012000E0002070470146486980B27047FF
:1018300001837047418370470AB1018300E041830F
:1018400070474161704742694A4042617047F0B554
:10185000002300244D07ED0E02FA05F3CE1000F12F
:10186000200555F826504E07F70E0F26BE40B5430B
:10187000CF1000F1200646F82750CE1000F12005C9
:1018800055F8265045EA0304CE1000F1200545F82E
:101890002640F0BD00000240000402400008024063
:1018A000000C0240001002400014024000180240E8
:1018B000001C024000200240002402400028024098
:1018C00010B50121080700F029FB00214FF08050DE
:1018D00000F024FB10BD5249086270470146002009
:1018E000504A106820F0E0000843106070474C49EF
:1018F000086170474A49A031086070474849A431DF
:101900000860704701460020464A106820F44040B5
:101910000843106070474249086470474049486472
:10192000704730B13F49096841F440213D4A116098
:1019300005E03C49096821F440213A4A11607047AA
:1019400018B10121364AD16202E00021344AD16245
:10195000704718B10121324A916202E00021304AF9
:10196000916270472E494862704710B502460020C8
:101970002C4B186840F6034398431043294B1860DA
:10198000294B1B6843F00403274C2360012901D134
:1019900030BF00E020BF244B1B6823F00403224C1F
:1019A000236010BD10B5024600201E4B186840F69B
:1019B0000343984310431B4B18601B4B1B6843F0B9
:1019C0000403194C2360012901D130BF00E020BF7E
:1019D000154B1B6823F00403134C236010BD114802
:1019E000006840F002000F4908600F48006840F0AE
:1019F00004000D49086000BF00BF30BF70470146BA
:101A00000020084A52680A400AB1012000E0002084
:101A100070470449096841EA8001024A1160704731
:101A200000000E420070004010ED00E0F948006830
:101A300040F00100F74908600020F64908310860CD
:101A4000F4480068F4490840F2490860F348091D69
:101A50000860F348EF4984310860F0481038091DE8
:101A60000860EC48006820F48020EA490860002003
:101A7000E8490C310860E7498C3108607047002163
:101A8000E44A921C117011460870704710B5014667
:101A90000022002300204A11012A02D1DD4C2368D4
:101AA00008E0022A03D1DB4C7034236802E0D94CF1
:101AB0007434236801F01F02012494401C400CB1CF
:101AC000012000E0002010BD38B500200090002467
:101AD000002500BF3120FFF7D9FF05460098401CC4
:101AE00000900098B0F5A04F01D0002DF2D0312029
:101AF000FFF7CCFF08B1012400E00024204638BDE8
:101B000001460020C34A106820F0F80040EAC100F6
:101B100010607047C349086070470021BD4A7032A9
:101B200011701170012802D004280AD104E00121AB
:101B3000B84A7032117005E00521B64A7032117052
:101B400000E000BF00BF7047B7490860704770B53C
:101B5000049C41EA82150126C6EB530645EA064578
:101B6000054345EA0465AB4E361D356070BDAD4991
:101B700008667047820142EA0172A64B84331A60FC
:101B80007047A8498866704710B5830143EA01632E
:101B900043EA02739F4C8834236010BDA149086753
:101BA0007047A049C864704702460020994B08332B
:101BB000186820F0EC6042EA01031843954B0833A3
:101BC0001860704702460020924B0833186820F0D6
:101BD000784042EA010318438E4B0833186070477F
:101BE000014600208B4A0832106820F003000843A9
:101BF0001060704787480830006800F00C0070479C
:101C000001460020834A0832106820F0F0000843A3
:101C100010607047014600207E4A0832106820F4A8
:101C2000E05008431060704701460020794A0832AE
:101C3000106820F4604040EAC10010607047F0B5C1
:101C4000002100220024022500260223714F0837BC
:101C50003F6807F00C0121B1042905D0082937D1CC
:101C600005E0724F076036E0714F076033E0694F5F
:101C70003F1D3F68C7F38056664F3F1D3F6807F022
:101C80003F036EB16A4FB7FBF3F7DFF888C10CF181
:101C9000040CDCF800C0CCF3881C07FB0CF40CE04F
:101CA000624FB7FBF3F7DFF86CC10CF1040CDCF802
:101CB00000C0CCF3881C07FB0CF4564F3F1D3F6857
:101CC000C7F301477F1C7D00B4FBF5F7076002E016
:101CD000564F076000BF00BF4E4F08373F6807F000
:101CE000F0010909534F7A5C0768D7404760494FB4
:101CF00008373F6807F4E051890A4E4F7A5C47681D
:101D0000D7408760434F08373F6807F46041490B6D
:101D1000484F7A5C4768D740C760F0BD002100F4A7
:101D20004072B2F5407F0AD13A4A0832116821F474
:101D3000F811414A02401143364A08321160354ACF
:101D400070321268C0F30B031A43324B70331A60BF
:101D50007047354944390860704733494039086055
:101D6000704736490860704701460020294A8C3286
:101D7000106820F01F004A1E1043264A8C32106063
:101D8000704701460020234A8C32106820F4F85036
:101D90004A1E40EA02201F4A8C32106070470146FA
:101DA00000201C4A8C32106820F440100843106058
:101DB000704701460020174A8C32106820F440001A
:101DC00008431060704701460020124A8C321068A8
:101DD00020F440300843106070471949086070478C
:101DE00039B10C4A3032126802430A4B30331A6060
:101DF00006E0084A303212688243064B30331A60DC
:101E00007047F9B1034A343212680243014B34334C
:101E10001A601CE000380240FFFFF6EA1030002490
:101E20000030002000004742800E47420024F400AA
:101E300000127A00D8000020FFFCFF0F5C0147422F
:101E4000E01147428F4A126882438E4B1A607047F6
:101E500039B18C4A121D126802438A4B1B1D1A604D
:101E600006E0884A121D12688243864B1B1D1A60C9
:101E7000704739B1834A0C3212680243814B0C33EC
:101E80001A6006E07F4A0C32126882437D4B0C33A5
:101E90001A60704739B17B4A103212680243794B9D
:101EA00010331A6006E0774A103212688243754B8D
:101EB00010331A60704739B1724A243A12680243EB
:101EC000704B243B1A6006E06E4A243A1268824343
:101ED0006C4B243B1A60704739B16A4A203A126849
:101EE0000243684B203B1A6006E0664A203A1268BB
:101EF0008243644B203B1A60704739B1614A1C3AF7
:101F0000126802435F4B1C3B1A6006E05D4A1C3AB4
:101F1000126882435B4B1C3B1A60704739B1594AC7
:101F2000143A12680243574B143B1A6006E0554AB4
:101F3000143A12688243534B143B1A60704739B10C
:101F4000504A103A126802434E4B103B1A6006E0AA
:101F50004C4A103A126882434A4B103B1A60704751
:101F600039B1484A1C3212680243464B1C331A608E
:101F700006E0444A1C3212688243424B1C331A600A
:101F8000704739B13F4A2032126802433D4B20333B
:101F90001A6006E03B4A203212688243394B2033F4
:101FA0001A60704739B1374A243212680243354B00
:101FB00024331A6006E0334A243212688243314BDC
:101FC00024331A60704739B12E4A2C32126802430A
:101FD0002C4B2C331A6006E02A4A2C3212688243BA
:101FE000284B2C331A60704739B1264A30321268B8
:101FF0000243244B30331A6006E0224A3032126822
:102000008243204B30331A607047012808D11D49A4
:102010003C31096841F008011A4A3C32116007E07E
:1020200018493C31096821F00801164A3C32116018
:10203000704739B1134A273A12780243114B273BB4
:102040001A7006E00F4A273A127882430D4B273B5D
:102050001A7070470B484030006840F080700949A2
:1020600040310860704701460020064A283A12684D
:102070000A400AB1012000E00020704701492639DA
:10208000087070473438024010B501218803FFF70B
:1020900056FF00214FF48040FFF751FF10BD1C494F
:1020A000086070471B490862704730B500228B07F3
:1020B0001C0F0F2303FA04F2154B08338C1053F84E
:1020C00024309343124C08348D1044F825302346B5
:1020D0008C1053F824308C07240F00FA04F42343A7
:1020E0000B4C08348D1044F8253030BD0949DC31E3
:1020F0000860704708490860704700200449203193
:10210000096801F4807109B1012000E000207047E6
:1021100000380140000027420004274210B5044661
:10212000FE48844208D101210846FFF708FF00213C
:102130000120FFF704FF9DE0B4F1804F08D1012199
:102140000846FFF7EBFE00210120FFF7E7FE91E0D4
:10215000F348844208D101210220FFF7DFFE00216D
:102160000220FFF7DBFE85E0EE48844208D1012122
:102170000420FFF7D3FE00210420FFF7CFFE79E013
:10218000E948844208D101210820FFF7C7FE002159
:102190000820FFF7C3FE6DE0E448844208D1012126
:1021A0001020FFF7BBFE00211020FFF7B7FE61E013
:1021B000DF48844208D101212020FFF7AFFE002133
:1021C0002020FFF7ABFE55E0DA48844208D1012118
:1021D0000220FFF7B4FE00210220FFF7B0FE49E025
:1021E000D548844209D101210804FFF7A8FE002147
:1021F0004FF48030FFF7A3FE3CE0D048844209D181
:1022000001214804FFF79BFE00214FF40030FFF747
:1022100096FE2FE0CA48844209D101218804FFF7C5
:102220008EFE00214FF48020FFF789FE22E0C54892
:10223000844208D101214020FFF770FE0021402098
:10224000FFF76CFE16E0C048844208D101218020CF
:10225000FFF764FE00218020FFF760FE0AE0BB4824
:10226000844207D101218015FFF758FE0021A015F7
:10227000FFF754FE10BD00220288A84B98420ED0F2
:10228000AC4B98420BD0B0F1804F08D0A44B984291
:1022900005D0A44B984202D0A34B984204D14FF6EC
:1022A0008F731A404B881A43A04B984207D0A04B1B
:1022B000984204D04FF6FF431A400B891A4302801C
:1022C0004B68C3620B880385944B984202D0994BAC
:1022D000984201D18B7A03860123838270474FF0A5
:1022E000FF3141600021018001814180817270478E
:1022F0000185828270470A46002101884FF68F735C
:10230000194011430180704741627047C1627047B4
:102310000146486A70470146088D704721B102881E
:1023200042F00202028004E002884FF6FD731A4078
:102330000280704721B1028842F00402028004E06A
:1023400002884FF6FB731A400280704721B1028861
:1023500042F08002028004E002884FF67F731A4048
:102360000280704702884FF6F7731A400280028895
:102370000A430280704702884FF6FF431A400280EA
:1023800002880A430280704721B1028842F00102AC
:10239000028004E002884FF6FE731A400280704704
:1023A00070B5002400220023058C4FF6FE763540E0
:1023B0000584028C8388048B4FF68F752C40B51EE4
:1023C0002C400D882C43751E2A408D892A434D8848
:1023D0002A43524DA84202D0564DA84213D14FF67F
:1023E000F7752A40CD892A434FF6FB752A408D8820
:1023F0002A434FF6FF652B404FF6FF552B400D8AC1
:102400002B434D8A2B43838004838D68456302846C
:1024100070BD70B5002400220023058C4FF6EF76C6
:1024200035400584028C8388048B48F6FF752C4068
:102430004FF6FF452C400D884FF6FF7606EA05253E
:102440002C434FF6DF752A408D8906EA05152A438D
:102450004D8806EA05152A43304DA84202D0354D75
:10246000A8421DD14FF67F752A40CD894FF6FF76E1
:1024700006EA05152A434FF6BF752A408D8806EAFD
:1024800005152A434FF6FF352B404FF2FF752B40C1
:102490000D8A06EA85052B434D8A06EA85052B43FE
:1024A000838004838D688563028470BD70B50024C9
:1024B00000220023058C4FF6FF6635400584028C10
:1024C0008388848B4FF68F752C404FF6FC752C401B
:1024D0000D882C434FF6FF552A408D894FF6FF7625
:1024E00006EA05252A434D8806EA05252A430B4DB1
:1024F000A84202D00F4DA84238D14FF2FF752A40B2
:10250000CD894FF6FF7606EA05252A434FF6FF35BB
:102510002A408D8806EA05252A4319E0000001407B
:102520000004004000080040000C00400010004083
:1025300000140040000401400040014000440140FC
:102540000048014000180040001C004000200040EE
:102550004EF6FF752B404DF6FF752B400D8A06EAAF
:1025600005152B434D8A06EA05152B43838084838A
:102570008D68C563028470BD70B5002200230024FD
:10258000058C4EF6FF7635400584038C8488828B5B
:1025900048F6FF752A404FF6FF452A400D884FF652
:1025A000FF7606EA05252A434DF6FF752B408D89F7
:1025B00006EA05352B434D8806EA05352B43FE4DCB
:1025C000A84202D0FD4DA84208D14BF6FF752C4021
:1025D0000D8A4FF6FF7606EA85152C4384808283A8
:1025E0008D680564038470BD002101804180818075
:1025F00081608181C18101824182704770B503464B
:10260000002000241846183001258D40ACB21D8CE6
:10261000A5431D8409B108290AD100EB61000568B2
:102620004FF68F76354005600568154305600FE06D
:102630000D1FC5F34E052844056848F6FF76354062
:10264000056005684FF6FF7606EA02263543056009
:1026500070BD4163704781637047C1637047016417
:1026600070470A460021018B4FF68F7319401143C2
:10267000018370470A460021018B48F6FF73194019
:102680004FF6FF7303EA02231943018370470A469A
:102690000021818B4FF68F7319401143818370475E
:1026A0000A460021818B48F6FF7319404FF6FF73ED
:1026B00003EA02231943818370470A460021018BF4
:1026C0004FF6F77319401143018370470A46002102
:1026D000018B4FF2FF7319404FF6FF7303EA022399
:1026E0001943018370470A460021818B4FF6F77327
:1026F00019401143818370470A460021818B4FF2B4
:10270000FF7319404FF6FF7303EA022319438183D5
:1027100070470A460021018B4FF6FB7319401143A5
:10272000018370470A460021018B4FF6FF331940A1
:102730004FF6FF7303EA02231943018370470A46E9
:102740000021818B4FF6FB73194011438183704741
:102750000A460021818B4FF6FF3319404FF6FF7375
:1027600003EA02231943818370470A460021018B43
:102770004FF67F7319401143018370470A460021C9
:10278000018BC1F30E014FF6FF7303EA02231943D5
:10279000018370470A460021818B4FF67F731940F1
:1027A0001143818370470A460021818BC1F30E01DA
:1027B0004FF6FF7303EA02231943818370470A46E9
:1027C0000021018C4FF6FD731940114301847047BD
:1027D0000A460021018C4FF6F7731940114301841A
:1027E00070470A460021018C4FF6DF7319404FF6FF
:1027F000FF7303EA02131943018470470A4600215C
:10280000018C4FF67F7319404FF6FF7303EA0213F2
:102810001943018470470A460021018C4FF6FF538B
:1028200019404FF6FF7303EA0223194301847047EE
:102830000A460021018C4FF2FF7319404FF6FF73D7
:1028400003EA02231943018470470A460021018CE0
:102850004DF6FF7319404FF6FF7303EA0233194335
:102860000184704730B5002301248C40A3B2048C4E
:102870009C430484048C02FA01F5ADB22C43048419
:1028800030BD30B5002304248C40A3B2048C9C439B
:102890000484048C02FA01F5ADB22C43048430BDEB
:1028A000828B4FF2FF331A408283828B4FF6FF7385
:1028B00003EA01231A4382837047F0B50C4615469C
:1028C000002100220026078C4EF6FF7C07EA0C0749
:1028D0000784818B028C4FF6FF7707EA043640F6B7
:1028E000FF4739404FF6FF7707EA052739434FF690
:1028F000FF7707EA0337394345F6FF773A4046F456
:1029000080573A4381830284F0BD828B4FF6F37384
:102910001A408283828B0A4382837047F0B50C464B
:102920001546002100220026078C4FF6FF6C07EAAF
:102930000C070784818B028C4FF6FF7707EA042689
:102940004FF60C7739404FF6FF7707EA03172F430E
:1029500039434FF2FF573A4046F480773A43818338
:102960000284F0BD028B4FF2FF331A400283028BC8
:102970004FF6FF7303EA01231A4302837047F0B551
:102980000C461546002100220026078C4FF6EF7CEE
:1029900007EA0C070784018B028C4FF6FF7707EAE2
:1029A000041640F6FF4739404FF6FF7707EA033732
:1029B00039434FF6FF7703E0000001400004014077
:1029C00007EA052739434FF65F773A4046F010078C
:1029D0003A4301830284F0BD028B4FF6F3731A4031
:1029E0000283028B0A4302837047F0B50C461546FA
:1029F00000210022068C4FF6FE773E400684018BB4
:102A0000028C4FF60C7631407E1C06EA03162E43EC
:102A100031434FF6F576324044F0010632430183EC
:102A20000284F0BD70B505460C46208850B9238954
:102A3000A28861882846FFF7D8FFE1882846FFF77B
:102A4000CBFF25E0208804280AD12389A288618849
:102A50002846FFF794FFE1882846FFF783FF17E039
:102A6000208808280AD12389A28861882846FFF790
:102A700055FFE1882846FFF748FF09E02389A2882F
:102A800061882846FFF719FFE1882846FFF708FF0D
:102A900070BD002101804180012181800021C18021
:102AA000018170472DE9F04105460C4600260127BB
:102AB000608808B9022600E00026A088012801D11C
:102AC000022700E001272088A0B92389A288618815
:102AD0002846FFF78AFFE1882846FFF77DFF238914
:102AE0003A4631462846FFF74AFFE1882846FFF775
:102AF00039FF13E02389A28861882846FFF73FFF4A
:102B0000E1882846FFF72EFF23893A4631462846BA
:102B1000FFF76BFFE1882846FFF75EFFBDE8F08115
:102B20000146486B70470146886B70470146C86B89
:102B300070470146086C70470A884B881A438B8897
:102B40001A43CB881A430B891A434B891A438B8942
:102B50001A43A0F844207047002101804180818001
:102B6000C180018141818181704731B1B0F8442039
:102B700042F40042A0F8442005E0B0F84420C2F33B
:102B80000E02A0F84420704721B1828842F004026E
:102B9000828004E082884FF6FB731A40828070477F
:102BA00021B1828842F00102828004E082884FF6DF
:102BB000FE731A40828070471AB183890B43838168
:102BC00002E083898B43838170478182704702468C
:102BD0000020138A0B400BB1012000E00020704759
:102BE000CA430282704730B5024600200023002409
:102BF000158A05EA0103958905EA010413B10CB1B0
:102C0000012000E0002030BDCA430282704741EA43
:102C10000203A0F8483070471AB183890B438381BF
:102C200002E083898B438381704721B1828842F01F
:102C30000802828004E082884FF6F7731A4082808F
:102C4000704701894FF6F8721140018170470A46BA
:102C5000002101894FF68F7319401143018170479C
:102C600030B504460D4629462046FFF7F0FF20897F
:102C700040F00700208130BD2DE9F04104460D46AB
:102C800016461F46602D06D13B460122314620469E
:102C9000FFF775FE05E03B46012231462046FFF76F
:102CA000A4FE29462046FFF7D2FF208940F0070006
:102CB0002081BDE8F08130B50C4600210189C9B200
:102CC0004FF6FF7505EA0325154325432943018186
:102CD00030BD2DE9F04105460E46174698460024C2
:102CE00043463A4631462846FFF7E5FF2C894FF622
:102CF000F870044044F007044FF68F70044044F02D
:102D000070042C81BDE8F081F0B504460D461646EE
:102D10001F463B46324629462046FFF7CCFF208916
:102D200040F480402081F0BD82884FF68F731A40B6
:102D3000828082880A438280704702894FF6F87346
:102D40001A40028102890A430281704702894FF6C4
:102D50007F731A40028102890A4302817047F0B5ED
:102D60000C4615461E460021002200230189028BD5
:102D7000038C4FF6F877394021434FF6FC473A4031
:102D800040F201173A434FF6DD773B404FF6FF77AD
:102D900007EA06172F433B43018102830384F0BDFA
:102DA00021B1828842F08002828004E082884FF65E
:102DB0007F731A4082807047A0F85010704700005F
:102DC00010B50446FA48844208D101211020FFF7CB
:102DD000B6F800211020FFF7B2F857E0F54884421A
:102DE00009D101214804FFF799F800214FF4003080
:102DF000FFF794F84AE0F048844209D101218804A1
:102E0000FFF78CF800214FF48020FFF787F83DE0B2
:102E1000EA48844209D10121C804FFF77FF8002164
:102E20004FF40020FFF77AF830E0E548844209D1FA
:102E300001210805FFF772F800214FF48010FFF719
:102E40006DF823E0DF48844208D101212020FFF7FC
:102E500076F800212020FFF772F817E0DA48844264
:102E600009D101218807FFF759F800214FF0804070
:102E7000FFF754F80AE0D548844207D10121400504
:102E8000FFF74CF800216005FFF748F810BD2DE969
:102E9000FF4705460E460024A14600BFA046B08964
:102EA00000B100BF2C8A24F44054F08804432C82E3
:102EB000AC8941F20C608443B08831890843718940
:102EC00008430443AC81AC8A24F44074B0890443C1
:102ED000AC826846FEF7B3FEB548854202D0B948D9
:102EE000854202D1DDF80C9001E0DDF80890A88958
:102EF00000F4004040B109EBC90000EB0910316853
:102F00004900B0FBF1F707E009EBC90000EB09103D
:102F100031688900B0FBF1F76420B7FBF0F00401E1
:102F20002009642101FB1078A88900F4004040B119
:102F3000322000EBC800B0FBF1F000F007000443C2
:102F400008E0322000EB08106421B0FBF1F000F043
:102F50000F0004432C81BDE8FF874FF41651016038
:102F600000218180C18001810C214181002181816A
:102F7000704710B502460020108A20F470600B885C
:102F80004C8823438C882343CC88234318431082E6
:102F900010BD0021018041808180C180704721B136
:102FA000828942F40052828104E082894DF6FF73E7
:102FB0001A4082817047028B02F47F420283028BA7
:102FC0000A430283704721B1828942F40042828120
:102FD00003E08289C2F30E028281704721B1828AA6
:102FE00042F40062828204E0828A4FF2FF731A4048
:102FF00082827047C1F30802828070470146888848
:10300000C0F308007047028A4FF6F0731A4002823C
:10301000028A0A430282704721B1828942F0020289
:10302000828104E082894FF6FD731A4082817047E5
:1030300082894FF2FF731A40828182890A4382811A
:103040007047028A4FF6DF731A400282028A0A43EF
:103050000282704721B1028A42F48042028204E077
:10306000028A4BF6FF731A4002827047818941F051
:1030700001018181704721B1828A42F00802828277
:1030800004E0828A4FF6F7731A4082827047028BFF
:10309000D2B20283028B42EA01220283704721B13D
:1030A000828A42F02002828204E0828A4FF6DF7335
:1030B0001A408282704721B1828A42F010028282D5
:1030C00004E0828A4FF6EF731A4082827047828A48
:1030D0004FF6FB731A408282828A0A4382827047CB
:1030E00021B1828A42F00202828204E0828A4FF693
:1030F000FD731A40828270471AB1838A0B43838220
:1031000002E0838A8B4383827047F0B50346002434
:1031100000260025002040F66A17B94200D100BF02
:103120001846C1F3421401F01F06012707FA06F5FD
:10313000012C01D10C3004E0022C01D1103000E050
:1031400014301AB107682F43076002E00768AF43E5
:103150000760F0BD02460020B1F5007F00D100BF3E
:1031600013880B400BB1012000E00020704701F4F0
:103170000072B2F5007F00D100BFCA4302807047E1
:1031800070B50246002400230025002040F66A1690
:10319000B14200D100BFC1F3421501F01F03012667
:1031A00006FA03F3012D13D19689334017E000008E
:1031B000001001400044004000480040004C004026
:1031C000005000400014014000780040007C0040A6
:1031D000022D02D1168A334001E0968A33400C1248
:1031E000012606FA04F41688344013B10CB101200C
:1031F00000E0002070BD10B50022002340F66A14E4
:10320000A14200D100BF0A1201249440A3B2DC43C2
:10321000048010BD10B504466FF00400FDF736FAC7
:10322000E11704EB5171C1F3C701394A117010461F
:10323000007800EB4001C1EBC0104FF6FF7101EACE
:10324000C0003449088010BD0146314A12784A4313
:103250004FF0E0235A6100229A611A46126942F047
:1032600001021A6100BF4FF0E022106900F0010274
:103270001AB100F48032002AF5D04FF0E022126932
:1032800022F001024FF0E0231A6100229A61704798
:103290000146204A12884A434FF0E0235A61002237
:1032A0009A611A46126942F001021A6100BF4FF09A
:1032B000E022106900F001021AB100F48032002A05
:1032C000F5D04FF0E022126922F001024FF0E02326
:1032D0001A6100229A61704770B504464FF4077076
:1032E00094FBF0F0C6B24FF4077094FBF0F100FBD2
:1032F000114085B205E04FF40770FFF7C9FF701E5B
:10330000C6B2002EF7D115B12846FFF7C1FF70BD38
:10331000E8000020EA00002000BF704700BFFE4A1E
:10332000128802F04002002AF9D0C2B2FA4B1B1DEB
:103330001A807047F949888000BFF849098801F070
:1033400040010029F9D0704710B5024600200BE07B
:10335000135CF24CA38000BFF04B1B8803F04003CA
:10336000002BF9D0431CD8B28842F1DB10BD10B558
:1033700088B0044601210846FEF732FD01211020E5
:10338000FEF788FD07220921E548FEF760FA0722CB
:103390000A21E348FEF75BFA4FF4C0600690022072
:1033A0008DF81C008DF81D0000208DF81E000120F6
:1033B0008DF81F0006A9DA48FEF7BEF90294002036
:1033C000ADF80C00ADF80E00ADF81000ADF814002B
:1033D0000C20ADF8120002A9D048FFF758FD0121DA
:1033E000CE48FFF7DCFD012240F22551CB48FFF724
:1033F0008CFE25208DF8040000208DF805000120AA
:103400008DF806008DF8070001A8FDF7F2F808B066
:1034100010BD10B540F22551C048FFF7B1FE00289D
:103420003ED0C049097851B9BF490978491CC9B291
:10343000BD4A11700A2902DD0121BA4A1170B7494B
:103440008988C8B2B949097869B9B9490978FE29A2
:1034500009D1B8490978FF2905D10121B34A117072
:103460000021B54A1170B1490978012911D1B34938
:10347000B14A12788854B0490978491CAE4A117093
:1034800011460978082904D10021A84A1170AC4AD4
:103490001170A7490978A74A1170A549087000BFA3
:1034A000002010BD9C49091D088000BF9A49098869
:1034B00001F040010029F9D0704710B588B00446EA
:1034C00001210846FEF78CFC01214804FEF7D1FCDF
:1034D000072202219248FEF7BAF9072203219048F9
:1034E000FEF7B5F90C20069002208DF81C008DF82F
:1034F0001D0000208DF81E0001208DF81F0006A978
:103500008748FEF719F902940020ADF80C00ADF8D9
:103510000E00ADF81000ADF814000C20ADF812004C
:1035200002A97D48FFF7B3FC01217B48FFF737FD77
:10353000012240F225517848FFF7E7FD26208DF85B
:10354000040000208DF8050001208DF806008DF89C
:10355000070001A8FDF74DF808B010BD10B52DED1E
:103560000C8B40F225516C48FFF70AFE00287DD0F5
:103570006948001D008873490860084600684B28A8
:1035800003D10120704908700AE06E48006849289C
:1035900003D06C4800684A2802D100206A490870AC
:1035A0006A48007800284DD167480078D0B965484E
:1035B0000068412809DB63480068482805DC614849
:1035C00000784038624908703CE05E48006808288E
:1035D00004DC5C4800785E49087033E000205C49F8
:1035E00008702FE05848007801282BD15548006812
:1035F000432806D100205749087001205649087019
:103600000FE050480068472806D101205149087052
:1036100000205149087004E000204E4908704E49CE
:10362000087048480068412803D04648006845288B
:1036300005D14448007840384549087002E0002030
:10364000434908703F4800687B2802D10120434964
:1036500008703C4800687D2802D102203F4908706C
:103660003E48007801280CD1364800E053E000784D
:103670003B493C4A127888543A480078401C394902
:10368000087036480078022845D13548C07850285F
:1036900003D1012034490870CAE03148C078572866
:1036A00003D1012031490870C2E02D484078232819
:1036B00066D02C4800782E49087071E029490978B5
:1036C0002B4A1278881A09F090FB41EC1D0BB0EEE2
:1036D0004D1AF0EE6D1A9FED270B08F049F9B0EE88
:1036E00040BAF0EE60BA22490978491E1C4A515C82
:1036F000A1F1300009F079FB41EC1C0B53EC1B2BC2
:1037000009F0DAFB41EC190B1C48006809F0CAFE0D
:1037100041EC1A0B35E09BE00044004000100140F2
:1037200000000240610000200F0100206200002024
:103730000D0100200E0100200C0100205700002088
:1037400065000020F0000020760000204E000020E0
:1037500002000020000000200100002010010020D5
:1037600040020020110100206300002064000020BE
:10377000120100200000000000002440140100207D
:1037800056E053EC192B09F0B1F841EC180B09F095
:103790007BF87D4908607D480078401E7B490870B1
:1037A0007A480078042889DA79484078303809283E
:1037B0003DD2DFE800F0050E171E252C333A3B0002
:1037C000714890ED000ABDEEC00A724880ED000A13
:1037D0002DE06D4890ED000ABDEEC00A6E4880ED08
:1037E000000A24E0684890ED000A6C4880ED000A69
:1037F0001DE0654890ED000A694880ED000A16E07A
:10380000614890ED000A674880ED000A0FE05E48CD
:1038100090ED000A644880ED000A08E05A4890EDF7
:10382000000A624880ED000A01E000E000BF00BF2E
:1038300000205F4908705F490870544908709FED87
:103840005E0A514880ED000A3221514807F0D8FA4B
:103850000020BDEC0C8B10BD58480078F8B15848DA
:1038600000685A281BD00020544A10705448006841
:10387000012806DB52480068082802DC504801781D
:103880000BE04F480068412807DB4D480068482896
:1038900003DC4B4800784038C1B2084670474848BE
:1038A00000685A2802D10120444A10700020F5E730
:1038B00010B502460B460021002004E0545C04448D
:1038C000E0B24C1CE1B29942F8DB10BD2DE9F041A9
:1038D0003C48008800F5004086B23A48408800F530
:1038E000004087B23848808800F5004084B23748ED
:1038F000D0ED000A9FED361A9FED360A00EE810AE0
:10390000BCEEC00A10EE100A85B233490E713012B7
:1039100048718F713812C8710C72201248728D7202
:103920002812C8720A212C48801CFFF7C1FF2A49BF
:1039300008730D21284801F0E6F8BDE8F08110B5C4
:10394000264800782649087124480088000A4871F2
:1039500024480078887123480088000AC8712248EA
:103960000078087220480088000A487208211C4824
:10397000801CFFF79DFF1A4988720B21184801F03F
:10398000C2F8FFF7A3FF10BD1401002012010020B0
:1039900040020020A4000020A80000209000002089
:1039A00094000020980000209C000020A00000202F
:1039B000100100201101002000000000180100206B
:1039C000F0000020EA010020E40100208000002037
:1039D0000000C84200000047F4000020140000204E
:1039E00001010020180000201C00002000B58DB04F
:1039F00001210846FEF7F4F901210802FEF74AFA10
:103A000020200B9003208DF8300000208DF833002B
:103A10000BA93948FDF790FE01210802FEF78FFA45
:103A200000214FF48070FEF78AFA002007900A9078
:103A300009904FF48030089007A8FCF77FFE002023
:103A400001908DF808008DF8090003900590012081
:103A50008DF8180001A92948FCF741FE01212748EB
:103A6000FCF783FE0DB000BD10B50446072301220C
:103A700021462248FCF7B9FE2048FCF712FF00BFA0
:103A800002211E48FDF72EF80028F9D01B48FCF74C
:103A900044FF10BD70B52DED0A8B0520FFF7E4FF44
:103AA000054609F0B9F941EC1C0B9FED150B53ECE1
:103AB000102B09F001FA41EC1B0B9FED130B53EC9B
:103AC000102B09F0F9F941EC1A0B9FED110B53EC97
:103AD000102B09F0F1F941EC190B9FED0F0B53EC92
:103AE000102B08F0BFFF41EC180B09F04FF904460A
:103AF0002046BDEC0A8B70BD000002400020014052
:103B00006666666666660A400000000000002640A1
:103B10000000000000005940000000000000B0401C
:103B200000B589B001210846FEF7A3F90121032061
:103B3000FEF756F94FF40040019003208DF809007C
:103B400002208DF8080001208DF80A008DF80B0086
:103B500001A9A448FDF7F0FD0820019003208DF88D
:103B6000090002208DF8080001208DF80A008DF868
:103B70000B0001A99C48FDF7DFFD01220F219948A8
:103B8000FDF765FE012203219748FDF760FE06A8B8
:103B9000FEF7A5FB0020ADF818004FF6FF70079068
:103BA0000020ADF82000ADF81A0006A94FF08040C3
:103BB000FEF761FB00231A4603214FF08040FFF718
:103BC000CEF803A8FEF765FF0020ADF8140003A9A6
:103BD0004FF08040FEF726FF01218807FFF700F82D
:103BE000012211469007FEF7E7FF01218807FEF743
:103BF000CBFB09B000BD00B589B001210220FEF762
:103C000038F901210846FEF7EBF8C02001900320A7
:103C10008DF8090002208DF8080001208DF80A00B7
:103C20008DF80B0001A96F48FDF786FD02220621E1
:103C30006C48FDF70CFE022207216A48FDF707FEDB
:103C400006A8FEF74CFB0020ADF818004FF6FF70F9
:103C500007900020ADF82000ADF81A0006A96348CF
:103C6000FEF709FB00231A4603216048FFF777F8A7
:103C700003A8FEF70EFF0020ADF8140003A95B486F
:103C8000FEF7D0FE01215948FEF7AAFF0122114696
:103C90005648FEF791FF01215448FEF775FB09B025
:103CA00000BD00B589B001210420FEF7E2F8012132
:103CB0000220FEF795F8C020019003208DF809003E
:103CC00002208DF8080001208DF80A008DF80B0005
:103CD00001A94548FDF730FD022206214248FDF7C3
:103CE000B6FD022207214048FDF7B1FD06A8FEF708
:103CF000F6FA0020ADF818004FF6FF70079000208C
:103D0000ADF82000ADF81A0006A93948FEF7B3FA5D
:103D100000231A4603213648FFF721F803A8FEF7CF
:103D2000B8FE0020ADF8140003A93148FEF77AFE72
:103D300001212F48FEF754FF012211462C48FEF7BF
:103D40003BFF01212A48FEF71FFB09B000BD0146D9
:103D5000022904D003290BD004291BD111E04FF014
:103D60008042526A10B200224FF080435A6213E040
:103D70001E4A2432126810B200221C4B24331A60EF
:103D80000AE01B4A2432126810B20022184B243376
:103D90001A6001E0002000BF00BF704714481030D7
:103DA000008813481030008820F0010010491031BD
:103DB000088070470D48103000880C48103000888B
:103DC00020F0010009491031088070474FF0804011
:103DD000008A4FF08040008A20F001004FF08041BF
:103DE00008827047000002400004024000040040C6
:103DF0000008004000B585B001210220FDF7F0FF6A
:103E00004FF40040009000208DF8040003208DF84E
:103E1000050001208DF8070069461448FDF78CFC69
:103E200001218803FEF736F80F210120FEF73DF946
:103E30004FF40040029000208DF80C000C208DF80B
:103E40000D0001208DF80E0002A8FDF775FB28205B
:103E50008DF8100001208DF811008DF812008DF8FA
:103E6000130004A8FCF7C5FB05B000BD0004024028
:103E70001CB501210220FDF7B3FF4FF480400090F4
:103E800000208DF8040003208DF8050001208DF836
:103E9000070069464B48FDF74FFC1CBD01464A48E8
:103EA000006828B949480088401C484A108002E050
:103EB0000020464A10804448006828B944480078E9
:103EC00010B90120424A107042480078B0B9404809
:103ED0000078012807D140480078401C3E4A107005
:103EE00001203C4A10703C480078022806D100208E
:103EF000394A1070394A10800220704732480068F1
:103F0000012804D10020324A1070324A1070324821
:103F1000007801281CD131480088401C2F4A1080AD
:103F20001046008888420ADD28480088884206DA60
:103F30000020294A1070294A10800120DDE723481B
:103F40000088884204DD0020234A1070234A108034
:103F50000020D2E72248007838B11B48006820B919
:103F600000201F4908700120704717480068012889
:103F700001D11B4908700020F6E71A48008840B9B3
:103F80001148006828B918480088401C1649088064
:103F900002E000201449088013480088C82807DD83
:103FA00001201049088000200F4908800120704737
:103FB0000C480088012802D100200A49088000200E
:103FC000F5E7000000040240388240422001002052
:103FD0001A0100201B0100201C0100201E010020EE
:103FE0002201002026010020240100201CB501210F
:103FF0000220FDF7F5FE4FF40050009001208DF8EF
:10400000040000208DF8060003208DF80500012033
:104010008DF8070069460F48FDF78EFB4FF40051FD
:104020000C48FDF705FC1CBD18B900210A4A1160B7
:104030000FE00A490968491C084A1160814208D109
:1040400005490968C943064AC2F8B4120021034A67
:104050001160704700040240B482404228010020F1
:10406000008040421CB501210620FDF7B9FE30203A
:10407000009001208DF8040000208DF80600032038
:104080008DF8050001208DF8070069464348FDF7CB
:1040900053FB30214148FDF7CBFB012000908DF808
:1040A000040000208DF8060003208DF80500012093
:1040B0008DF8070069463A48FDF73EFB0121384874
:1040C000FDF7B6FB1CBD30B58BB004460D46012193
:1040D0000220FDF7DFFE01210846FDF781FE0322E5
:1040E00006212E48FDF7B3FB032207212B48FDF7DD
:1040F000AEFB032208212948FDF7A9FB4FF4E0702D
:10410000099002208DF8280003208DF82900002056
:104110008DF82A0001208DF82B0009A91F48FDF712
:104120000BFBADF818500020ADF81A000794ADF85D
:10413000200006A91B48FEF79EF87020ADF8040089
:104140000120ADF806000220ADF8100001A91548C5
:10415000FEF726F901A91348FEF75BF901A91148FA
:10416000FEF7A4F901210F48FEF7FFFC08210D48D6
:10417000FEF7A3FA08210B48FEF7A8FA0821094820
:10418000FEF7B1FA01210748FEF7E0F801210548E2
:10419000FEF7FAF8FFF766FF0BB030BD00080240EB
:1041A000000402400004014010B50A461AB1012380
:1041B000FE4C236002E00023FC4C2360002116E04B
:1041C0000023FA4C3434236000F080031BB1012338
:1041D000241D236003E00023F44C383423600123C2
:1041E000F24C343423604306180E4B1CD9B2082914
:1041F000E6DB0123ED4C236010BD30B500241CE04C
:1042000004F1B001C8B20021FFF7CEFF002108463B
:10421000FFF7CAFF00211020FFF7C6FF002508E0C6
:10422000E34901EBC501085D0121FFF7BDFF681CF3
:10423000C5B2802DF4DB601CC4B2082CE0DB30BDBD
:1042400000B500218D20FFF7AFFF00211420FFF7FC
:10425000ABFF0021AF20FFF7A7FF00BD00B5002195
:104260008D20FFF7A1FF00211020FFF79DFF002107
:10427000AE20FFF799FF00BD30B500240CE000250B
:1042800006E00020CA4901EBC5010855681CC5B20B
:10429000802DF6DB601CC4B2082CF0DBFFF7ADFF0D
:1042A00030BDF0B5144600267F2801DC3F2900DD33
:1042B000F0BD0B46CF1701EB5777FF10C7F107078B
:1042C000FAB2CF1701EB5777FF10A1EBC707FDB28A
:1042D000C5F107070123BB40DEB24CB1B44B03EB81
:1042E000C0039B5C3343B24F07EBC007BB5408E0ED
:1042F000AF4B03EBC0039B5CB343AD4F07EBC00771
:10430000BB5400BFD4E72DE9F04F80460C4615465C
:104310001E46A346A5F12000C5B200273EE00C2EA4
:1043200007D105EB4500A34901EB800010F8079089
:1043300004E0A14800EB051010F807904FF0000AC8
:1043400026E009F0800028B121464046099AFFF78F
:10435000A8FF09E0099808B9012000E00020024602
:1043600021464046FFF79DFF4FEA49604FEA10693A
:10437000601CC4B2A4EB0B00B04205D15C4608F14E
:10438000010000F0FF0806E00AF1010000F0FF0A5A
:10439000BAF1080FD5DB00BF781CC7B2B742BEDB4D
:1043A000BDE8F08F10B50246012000E050430B003D
:1043B000A1F10104E1B2F9D110BD2DE9FF4F81B0A7
:1043C000074691461E460E9D4FF0000A002439E034
:1043D000301B401EC1B20A20FFF7E4FFB9FBF0F02A
:1043E0000A21B0FBF1F201FB1208BAF1000F16D15D
:1043F000701EA04213DDB8F1000F0ED10120AB46B4
:1044000005EBDB71491001FB04710090C8B22B462B
:1044100020220299FFF777FF12E04FF0010A0120F6
:10442000AB4605EBDB71491001FB04710090C8B28B
:1044300008F13001CAB22B460299FFF764FF00BFB2
:10444000601CC4B2B442C3DB05B0BDE8F08F78B5E0
:1044500005460E46144618E07A2D03DD002506F1C8
:104460001000C6B23A2E04DD002005460646FFF7CE
:1044700003FF0120009022780C2331462846FFF7E5
:1044800042FF05F10800C5B2641C20780028E3D182
:1044900078BD1CB501210420FDF7A2FC012108070D
:1044A000FDF7E7FC0120FDF716FA0020FDF735FBCC
:1044B0004EF20100009001208DF8040000208DF8DC
:1044C00006008DF805008DF8070069463B48FDF7AA
:1044D00033F9012039491A3108804003088040002F
:1044E000088040000880002030493C31086064208A
:1044F000FEF7F2FE01203249C1F8BC020021AE20D5
:10450000FFF752FE0021D520FFF74EFE002150207C
:10451000FFF74AFE0021A820FFF746FE00213F20BA
:10452000FFF742FE0021D320FFF73EFE00210846A0
:10453000FFF73AFE00214020FFF736FE00218D20D4
:10454000FFF732FE00211420FFF72EFE002120206D
:10455000FFF72AFE00210220FFF726FE0021A120FE
:10456000FFF722FE0021C020FFF71EFE0021DA2007
:10457000FFF71AFE00211220FFF716FE002181200E
:10458000FFF712FE0021EF20FFF70EFE0021D920D9
:10459000FFF70AFE0021F120FFF706FE0021DB20D5
:1045A000FFF702FE002130200CE0000080024142B3
:1045B000720200208AD60008FEDA000800080240D5
:1045C00000004142FFF7F0FD0021A420FFF7ECFDC1
:1045D0000021A620FFF7E8FD0021AF20FFF7E4FD52
:1045E000FFF74AFE1CBD00001CB501210220FDF7AB
:1045F000F7FB4FF44060009001208DF8040000208C
:104600008DF8060003208DF8050001208DF80700C5
:104610006946F848FDF790F80120F7490860F74926
:10462000C1F8AC021CBD10B5F248006820F440008F
:10463000F04908600846006840F4800008600120E6
:10464000ED49091D0860ED48D0F82C0208B900209A
:1046500010BD0120E8490860FEF7F6FD0020E7499B
:10466000C1F8AC02E4487C38006808B10020EFE7EC
:104670000120FEF7E9FD0020DF4908600120E7E79F
:1046800010B5DC48006820F44000DA4908600846AC
:10469000006840F4800008600020D7490860D749CE
:1046A000C1F8AC020120FEF7CFFD0120D24908601D
:1046B000D249C1F8AC02FEF7C7FD10BD10B5002409
:1046C000CC48006820F44000CA49086008460068E9
:1046D00008600120C849091D0860FEF7B5FD0120EA
:1046E000C649C1F8A802FEF7AFFD0AE0601CC4B2DB
:1046F000322C03DDFFF7C4FF002010BD0120FEF7C0
:10470000A3FDBD487C3800680028EFD1BA49086095
:104710000120F2E710B50020B7490860B5480068ED
:1047200020F44000B34908600846006840F4800067
:1047300008600020B149C1F8AC020120FEF784FDF9
:104740000120AD490860FEF77FFD0020AB49C1F8AC
:10475000A80210BD10B50020A7490860A548006850
:1047600020F44000A34908600846006840F4800037
:1047700008600120A149C1F8AC02FEF765FD0120E7
:104780009D490860FEF760FD00209C49C1F8A80221
:1047900010BD70B504469748006820F44000954964
:1047A00008600846006840F48000086000209249D4
:1047B0000860002516E0E0098F49091D08606006C1
:1047C000040E0120FEF740FD01208C49C1F8A8022B
:1047D000FEF73AFD0020884908600120FEF734FD0D
:1047E000681CC5B2082DE6DB70BD2DE9F041054619
:1047F0000E4617469846FFF716FF10B90120BDE890
:10480000F0816906080EFFF7C4FFFFF757FF18B9DC
:10481000FFF736FF0120F2E73046FFF7BAFFFFF758
:104820004DFF00240BE018F80400FFF7B2FFFFF77C
:1048300045FF18B9FFF724FF0020E0E7641CBC42E5
:10484000F1DBFFF71DFF0020D9E770B50546002416
:104850006848006820F4400066490860084600681F
:104860000860002616E00020634908600220FEF779
:10487000EBFC01206149C1F8A8026006040E5E4805
:104880007C38006808B1601CC4B20220FEF7DCFC72
:10489000701CC6B2082EE6DB15B1FFF73BFF01E046
:1048A000FFF758FF204670BD2DE9F04106460F4640
:1048B00014461D46FFF7B7FE10B90120BDE8F08190
:1048C0007106080EFFF765FFFFF7F8FE18B9FFF74E
:1048D000D7FE0120F2E73846FFF75BFFFFF7EEFE59
:1048E000FFF7A1FE012101EB4601C8B2FFF751FF1E
:1048F000FFF7E4FE0DE0012C04D10020FFF7A5FF37
:10490000287003E00120FFF7A0FF28706D1C601ED7
:10491000C4B2002CEFD1FFF7B3FE0020CEE770B594
:1049200005460E460024FFF77EFE2846FFF731FFBE
:10493000641CFFF7C3FE3046FFF72BFF641CFFF734
:10494000BDFEFFF770FE691CC8B2FFF722FF641CB2
:10495000FFF7B4FE0020FFF778FF0446FFF790FE54
:10496000204670BD2DE9F0410746884615461E4693
:104970000024FFF758FE3846FFF70BFFFFF79EFEB7
:104980004046FFF706FFFFF799FEFFF74CFE791C44
:10499000C8B2FFF7FEFEFFF791FE00BF0DE0681EF4
:1049A000A04204D00120FFF750FF305503E0002063
:1049B000FFF74BFF3055601CC4B2AC42EFDBFFF792
:1049C0005FFE2046BDE8F0812DE9F04180460D46AE
:1049D00016461F460024FFF726FE4046FFF7D9FE85
:1049E000FFF76CFE2846FFF7D4FEFFF767FE00BF17
:1049F0000DE0000000040240A882404200804042D6
:104A0000385DFFF7C6FEFFF759FE601CC4B2B44222
:104A1000F6DBFFF735FE0120BDE8F08170B50546F5
:104A20000E46144631462846FFF779FF20700120D4
:104A300070BD37B504460D4602AB0122294620461B
:104A4000FFF7C2FF3EBD2DE9F843074688461446EE
:104A50001D46089E6A4641463846FFF7DFFF28B3E9
:104A6000601CFF2101FA00F0C4F108012944491E2D
:104A7000FF220A41104300F0FF09C5F1080006FAC1
:104A800000F0C6B2C4F1070006419DF8000000EA3C
:104A9000090000909DF80000304300909DF8002030
:104AA00041463846FFF7C5FFBDE8F8830020FBE725
:104AB000F8B506460F4614461D466A463946304646
:104AC000FFF7ACFF2DB10120A0409DF80010084376
:104AD00005E00120A0409DF8001021EA0000C0B2CE
:104AE00000909DF8002039463046FFF7A2FFF8BD40
:104AF0005E49088000BF5D49091F098801F0400137
:104B00000029F8D0704710B5024600200BE0135C76
:104B1000564C238000BF554B1B1F1B8803F04003DE
:104B2000002BF8D0401C8842F1DB10BD10B588B0D6
:104B3000044601210420FDF753F901218804FDF703
:104B400098F907220A214A48FCF781FE07220B2127
:104B50004748FCF77CFE4FF44060069002208DF839
:104B60001C008DF81D0000208DF81E0001208DF81E
:104B70001F0006A93E48FCF7DFFD02940020ADF8B7
:104B80000C00ADF80E00ADF81000ADF814000C20CC
:104B9000ADF8120002A93548001FFEF778F901218F
:104BA0003248001FFEF7FBF9012240F225512F4841
:104BB000001FFEF7AAFA27208DF8040000208DF8C8
:104BC000050001208DF806008DF8070001A8FBF70D
:104BD00010FD08B010BD10B540F225512348001F4C
:104BE000FEF7CEFA00283ED02249097851B9224971
:104BF0000978491CC9B2204A11700A2902DD012135
:104C00001C4A117019490988C8B21C49097869B948
:104C10001B490978FE2909D11A490978FF2905D1CC
:104C20000121164A11700021174A117013490978A1
:104C3000012911D11549144A12788854124909786A
:104C4000491C114A117011460978082904D1002124
:104C50000A4A11700E4A117009490978094A1170FF
:104C60000749087000BF002010BD00000448004044
:104C700000080240610000202F0100206200002097
:104C80002D0100202E0100202C01002057000020C3
:104C9000650000202DE9FE4304460D4616461F46DA
:104CA000DDF828904FF0000814B10DB106B117B926
:104CB0000120BDE8FE83601EC4B2681EC5B2701E2E
:104CC000C6B2781E87B201210220FDF789F80121C2
:104CD0004806FDF7CEF84FF44070019002208DF8A1
:104CE000080000208DF80A0003208DF8090001203B
:104CF0008DF80B0001A9FE48FCF71EFD09220821D2
:104D0000FB48FCF7A4FD09221146F948FCF79FFD7A
:104D10000020F84908600846006840F0010008607B
:104D200008E008F101001FFA80F8B8F1640F01DD16
:104D30000220BEE7EF48001D006800F001000028D7
:104D4000EFD0EC480068EB4908600846006808604E
:104D50000846006808600846006840F010000860D7
:104D60000846006808600846006808600020E149BD
:104D70001C3108600846006840EA897008600846EF
:104D8000006840EA046008600846006840EA055090
:104D900008600846006840EA064008600846006867
:104DA00038430860D348006820F00100D14908600A
:104DB00009E008F101001FFA80F84FF6F070804515
:104DC00001DD032075E7CB48001D006800F00100FD
:104DD0000028EED1C848006840F00100C6490860CC
:104DE000C5481C30006820F00100C3491C31086030
:104DF000C1480C30006840F00100BF490C31086028
:104E0000BD48001D0068BC49091D0860BA4814303F
:104E10000068B949143108600020B7494031086082
:104E20000021B54844300160B3481C30006840F0B0
:104E30000100B1491C310860AF4800680020AE494C
:104E4000086001220221AB48FCF712FA14208DF809
:104E5000000001208DF8010000208DF802000120E3
:104E60008DF803006846FBF7C4FB002021E7F0B58E
:104E700005460E46059C9F480830006800F080609B
:104E800008B1002111E09B480830006800F0006084
:104E900008B1012109E097480830006800F080500F
:104EA00008B1022101E0FF20F0BD002792488038C0
:104EB00000EB011007601EB9C5F30A056D0502E09D
:104EC00025F06045ED008C48803800EB011000684B
:104ED0002843894F803F07EB0117386086488038A8
:104EE00000EB0110006840EA86078348803800EB39
:104EF000011007608048803800EB0110006840EA2C
:104F000042077D48803800EB0110076003F00F0373
:104F10007948803800EB0110406820F00F07764890
:104F2000803800EB011047607348803800EB0110B7
:104F300040681843704F803F07EB01177860E079B5
:104F40000006A77940EA0740677940EA07272079F9
:104F500007436948803800EB0110C760E07800061D
:104F6000A77840EA0740677840EA07202778384367
:104F7000614F803F07EB0117B8605F48803800EB56
:104F80000110006840F001075B48803800EB011019
:104F90000760084688E70146002021B1012916D0A4
:104FA00002293CD127E0534A0832126802F001027C
:104FB0001043504A0832126802F0020210434D4A70
:104FC0000832126802F0806240EA126029E0494A21
:104FD0000832126802F001021043464A0832126891
:104FE00002F002021043434A0832126802F00062E3
:104FF00040EA526015E03F4A0832126802F00102AE
:1050000010433C4A0832126802F002021043394A47
:105010000832126802F0805240EA926001E00520F6
:1050200000BF00BF7047014629B932480C30006804
:1050300000F003007047012905D12E4810300068A8
:1050400000F00300F6E70020F4E7F0B5DDE90554D1
:10505000294E503E06EB0016366806F00406167020
:1050600016783EB9244E503E06EB00163668760D93
:105070000E6006E0204E503E06EB00163668F6083D
:105080000E601D4E503E06EB0016366806F0020616
:105090001E70194E503E06EB0016766806F00F069D
:1050A0002E70154E503E06EB0016B6682670124E56
:1050B000503E06EB0016B668360A66700E4E503E3D
:1050C00006EB0016B668360CA6700B4E503E06EB8B
:1050D0000016B668360EE670074E503E06EB001618
:1050E000F6682671044E503E06EB0016F66805E0A1
:1050F000000402400064004000660040360A667109
:10510000C14E06EB0016F668360CA671BE4E06EBD5
:105110000016F668360EE67130B9BC4E366846F0B9
:105120002006BA4F3E6009E0012807D1B74E361D70
:10513000366846F02006B54F3F1D3E60F0BD10B505
:105140008AB0B3A103C9CDE9040102A806A907AB3F
:1051500008AACDE9001009A90020FFF776FF002476
:105160000FE0072C04D102A8005DAB4908700AE0EB
:1051700002A8005D04A9095D884200D003E0601C1C
:10518000C4B2072CEDDD00BF40F22111099888421E
:1051900007D1A148007820B1A04802990160039985
:1051A00041600AB010BDF8B505460E4600243346EE
:1051B0000022114640F201600095FFF758FE0746B5
:1051C00001E0601C84B23846FFF7E5FE072803D0F3
:1051D00040F6FF708442F4DB40F6FF70844201DB4E
:1051E0000120F8BD0020FCE710B586B00446002081
:1051F000FFF719FF10B9002006B010BD02A803ABDD
:1052000004AA05A9CDE900040020FFF71EFF0598B8
:10521000122805D19DF8100010B99DF80C0008B1B6
:10522000002002909DF80800E6E7F8B505460E4616
:10523000002433460022114640F201700095FFF72A
:1052400016FE074601E0601C84B23846FFF7A3FE55
:10525000072803D040F6FF708442F4DB40F6FF706D
:10526000844201DB0120F8BD0020FCE7F8B50646CA
:105270000D46002408230022114630460095FFF712
:10528000F6FD074601E0601C84B23846FFF783FE56
:10529000072803D040F6FF708442F4DB40F6FF702D
:1052A000844201DB0120F8BD0020FCE72DE9F04736
:1052B0005B480068002801DD002406E058480068CB
:1052C000002801DA022400E0012456480068002882
:1052D00001DD002506E053480068002801DA0225B8
:1052E00000E0012550480068002801DD002606E0A6
:1052F0004D480068002801DA022600E001264B48EC
:10530000D0ED000A9FED4A1A9FED4A0A00EE810A8D
:10531000BCEEC00A10EE100A87B24748D0ED000A72
:105320009FED431A9FED430A00EE810ABCEEC00ACE
:1053300010EE100A1FFA80F84048D0ED000A9FEDE9
:105340003C1A9FED3C0A00EE810ABCEEC00A10EE4A
:10535000100A1FFA80F93A48808800F500401FFAC9
:1053600080FA3848007808B9012000E0002035496B
:10537000087008460078B8B93812334908704F7081
:105380004FEA2820887081F803804FEA29200871AD
:1053900081F805904FEA2A20887181F807A04FF420
:1053A0008070FFF763FF2DE01D490868002801DBCE
:1053B000014600E04142244A1170104644701949E8
:1053C0000868002801DB014600E041421E4A917056
:1053D0001046C57014490868002801DB014600E04A
:1053E0004142194A117110464671184800680A2155
:1053F00090FBF1F011468871C820C87140F201108D
:10540000FFF734FFBDE8F087B06500400C64004052
:105410000A0C0F13181E25005F0000204F0000200B
:10542000080000200C000020100000207800002060
:105430000000C8420060EA467C0000208000002096
:10544000E40100203001002066000020440000201C
:105450001CB501210520FCF7C3FC102000900120A1
:105460008DF8040000208DF8060003208DF805005B
:1054700001208DF807006946F948FCF75DF9102115
:10548000F748FCF7D5F90A20009001208DF80400B8
:1054900000208DF8060003208DF8050001208DF80E
:1054A00007006946EF48FCF747F90A21ED48FCF789
:1054B000BFF90420009000208DF8040003208DF82F
:1054C000050001208DF807006946E648FCF734F92D
:1054D0001CBD38B50446012000900020E249487008
:1054E000012000902DE0BDF80000204018B10120FF
:1054F000DE49086002E00020DC4908600120DC4948
:1055000008600520FDF7A0FE0020DA49C1F89002EE
:105510000520FDF799FE0120D649C1F89002D64832
:10552000D0F8080230B1D0484078BDF800100843E8
:10553000CD494870BDF800004FF6FF7101EA400008
:105540000090BDF80000FF28CDDD1020FDF77CFEA7
:1055500038BD10B50020C54908310860C749087832
:10556000FFF7B7FFC5494878FFF7B3FF0120C249ED
:10557000C1F88C02BC484078732801D1002010BDCE
:105580000120FCE71CB500200190012000900020C4
:10559000B64908310860B9490878FFF79AFFB7495A
:1055A0004878FFF796FF0220019035E00120009037
:1055B00026E00120AE4908600520FDF745FE0020E9
:1055C000AC49C1F890020520FDF73EFE0120A94933
:1055D000C1F89002A848D0F8080250B1A2489DF83E
:1055E0000410405CBDF8001008439F499DF804205A
:1055F0008854BDF800004FF6FF7101EA40000090AA
:10560000BDF80000FF28D4DD1020FDF71DFE9DF839
:105610000400401CC0B201909DF804000928C5DBBD
:1056200001209249083108601CBD002004E00021DF
:105630008D4A1154411CC8B20928F8DB704710B5D7
:10564000FFF7F3FFFFF79EFF8748C0788649097987
:1056500040EA01208A49088000240FE0894810F8B8
:105660001400401E012101FA00F085490988084014
:1056700010B9601CC0B210BD601CC4B2102CEDDBB0
:105680000020F8E701467848405C704770B5054651
:105690000C4600207549083108601020FDF7D4FD44
:1056A0000120FFF716FF4220FFF713FF0020FFF74E
:1056B00010FF2846FFF70DFF2046FFF70AFF0020E6
:1056C000FFF707FF0020FFF704FF0020FFF701FFAF
:1056D0000020FFF7FEFE01206749C1F88C02102070
:1056E000FDF7B2FD70BD10B50020604908310860BB
:1056F0001020FDF7A9FD0120FFF7EBFE4220FFF788
:10570000E8FE0020FFF7E5FE0020FFF7E2FE0020A4
:10571000FFF7DFFE01205849C1F88C021020FDF789
:1057200093FD10BD10B500205049083108601020CD
:10573000FDF78AFD0120FFF7CCFE4320FFF7C9FEED
:105740000020FFF7C6FE0120FFF7C3FE0020FFF791
:10575000C0FE0020FFF7BDFE0020FFF7BAFE0020CC
:10576000FFF7B7FE0020FFF7B4FE01204249C1F861
:105770008C021020FDF768FD10BD10B500203B49DC
:10578000083108600120FFF7A4FE4420FFF7A1FEC6
:105790000020FFF79EFE0120FFF79BFE0320FFF78E
:1057A00098FE0020FFF795FE0020FFF792FE0020F4
:1057B000FFF78FFE0020FFF78CFE01202E49C1F875
:1057C0008C021020FDF740FD10BD10B500202749C8
:1057D000083108601020FDF737FD0120FFF779FE42
:1057E0004D20FFF776FE0020FFF773FE0020FFF745
:1057F00070FE0120FFF76DFE01201F49C1F88C02E9
:105800001020FDF721FD10BD10B50020174908310B
:1058100008601020FDF718FD0120FFF75AFE432015
:10582000FFF757FE0020FFF754FE0020FFF751FE60
:105830005A20FFF74EFE5A20FFF74BFE5A20FFF783
:1058400048FE5A20FFF745FE5A20FFF742FE01208E
:105850000949C1F88C021020FDF7F6FC10BD0000CC
:10586000000002400008024072060020840241420B
:1058700090024042000040420000414234010020BA
:10588000320100203601002010B5FFF72CFFFFF792
:105890002AFFFFF728FFFFF745FFFFF76EFFFFF72F
:1058A000B3FF10BD10B50E48007898B10720FFF780
:1058B000E9FE0C4908600820FFF7E4FE0A49086089
:1058C0000520FFF7DFFE094908600620FFF7DAFE32
:1058D00007490860FFF7B3FE0649086010BD0000E5
:1058E00060000020AC000020B0000020B4000020C8
:1058F000B8000020BC00002000B52DED108B89B051
:10590000B0EE408AB0EE60FAF0EE418AB0EE480A9E
:10591000F7EE000A00EEA80AFA48B0F9040000EE1B
:10592000900AF8EEE00AF84890ED001A00EE810ABD
:10593000BDEEC00AF54880ED000AF248B0F9040057
:1059400000EE100AB8EEC00AEF48D0ED000A20EED3
:10595000200A10EE101A084607F0A4FD41EC190BBE
:10596000B7EE000A28EE800A10EE101A084607F07B
:1059700099FD41EC1B0B1FEE100A07F093FD9FED04
:10598000E40BCDE9040106F00FFE8DED000B9FED59
:10599000E20B53EC102B9DED000B51EC100B07F0BC
:1059A00061F8CDE902019DED040B53EC102B9DED48
:1059B000020B51EC100B07F07FFA41EC1D0BBEEE11
:1059C000000A28EE000A10EE101A084607F06AFDD9
:1059D00041EC1E0B53EC1D2B06F088FF41EC1C0B19
:1059E00053EC1B2B06F082FF41EC1A0B53EC192BE6
:1059F00006F07CFFCDE906019DED060B51EC100B86
:105A000007F0C4F9C6490860BE48B0F9040000EECA
:105A1000100AB8EEC00ABC48D0ED000A20EE200AF9
:105A200010EE101A084607F03DFD41EC1E0BB7EED4
:105A3000000A28EE800A10EE101A084607F032FD20
:105A400041EC190B1FEE100A07F02CFD41EC1C0B6A
:105A50009FEDAF0B06F0A8FD8DED000B9FEDAE0B9B
:105A600053EC102B9DED000B51EC100B06F0FAFFE0
:105A700041EC1D0B53EC1C2B07F01EFABEEE000A86
:105A800028EE000ACDE9020110EE101A084607F0D0
:105A900009FD41EC1B0B9DED020B53EC102B07F0A5
:105AA00017FC41EC1A0B53EC192B06F01FFF53ECBB
:105AB0001E2BCDE904019DED040B51EC100B06F0FB
:105AC00015FFCDE906019DED060B51EC100B07F01B
:105AD0005DF99449086009B0BDEC108B00BD00B5BC
